:100000000C946D1C0C949E1C0C949E1C0C949E1CB9
:100010000C949E1C0C949E1C0C949E1C0C949E1C78
:100020000C949E1C0C949E1C0C949E1C0C949E1C68
:100030000C949E1C0C9442BF0C949E1C0C949E1C11
:100040000C949E1C0C9489F40C949E1C0C949E1C85
:100050000C949E1C0C949E1C0C940B850C94F8BE66
:100060000C949E1C0C94CC4C0C94C24C0C949E1C76
:100070000C949E1C0C949E1C0C949E1C0C949E1C18
:100080000C949E1C0C949E1C0C949E1C0C949E1C08
:100090000C949E1C0C949E1C0C949E1C0C949E1CF8
:1000A0000C949E1C0C949E1C0C949E1C0C949E1CE8
:1000B0000C949E1C0C949E1C0C949E1C0C949E1CD8
:1000C0000C949E1C0C949E1C0C949E1C0C949E1CC8
:1000D0000C949E1C0C949E1C0C949E1C0C949E1CB8
:1000E0000C949E1C33416A3F863F7241863F863F97
:1000F000863F863F863F863F863F863F863F863FD8
:10010000863F863F863F863F863F863F863F863FC7
:10011000863F863F863F863F863F863F863F863FB7
:100120006D41863F863F863F863F863F863F863FBE
:10013000863F4741863F863F863F863F863F863FD4
:10014000863F863F863F863F7C414341ADA7BAA7A5
:10015000CFA7DCA7F9A70EA81BA82CA83DA856A8D6
:100160006FA888A8A1A8BEA8DBA8D9012701A5016E
:10017000D70169025102D500F501FF004B01A10131
:10018000F90005020901DF0061014B0283029D01B4
:10019000F50089018702D900C501DF013101830221
:1001A000CD01AB015D020C9458DE0D946D270C94CB
:1001B000A3630D94EE300C9448FE0C94F1410D9421
:1001C000C7300C940F6C0C9490650C9416640D94CD
:1001D0001B4B0C949AFE0D94394B0C94ADA70C94C8
:1001E00060650C949AB30C9483FE0D94E0300C94EB
:1001F00030670D9476270D9442160C940EA80D943A
:1002000070270C94863F0D94A7100C94F63E0C9426
:100210001CF10D94D8300D940D130C943CFE0C94ED
:1002200091770C947C410C94996E0C94D6CD0D94DE
:10023000910E0D949C0F0C9488A80C948FFE0C9436
:10024000E0ED0C9495FE0C9442640C9458630D946C
:100250005E270C948CE40D945D020C9454FE0C9477
:10026000D6A40D94FC300C94F2BE0C947FEF0C9449
:10027000FCF00C9472650C94A5EE0C9433410C9434
:1002800004F10C942AFE0D949F0F0C94346C0C9482
:1002900071FE0C94CD9E0D948B270C9469BA0C942E
:1002A000BA5C0C94C3CD0C9481E00C9484650C94DE
:1002B0004BD00C94293E0C94B7A40C94A8650C94D4
:1002C00077FE0D94CB300D9473020D94A1100C9415
:1002D000E4CD0C948A650C9403DB0C94BAA70C94BF
:1002E000DCA70C94F1ED0C94BFED0C9484DC0C9421
:1002F000A6D50C946CB30C94E1F30C940ED80D9429
:100300004C010C947DFE0C9414F10C9472410C94ED
:1003100086DC0D94E6300C949FFE0C9415670C94CB
:100320003F630C94CA410D940E010C94AC690C947B
:10033000AFD50C94B1D50C944D650D94DC300C9474
:10034000DBA80D9473270C9496650D9464270C9488
:10035000C8BE0C940CF10D9406310C9403640C94FB
:1003600018F10C948ADC0C9400F10C94006C0D9440
:1003700009010C94A2650C949C640C948DD90C9486
:1003800005D60C9483D50C949C650D94F4300C9494
:100390004EFE0C94C6640C9424F10D9402310C941E
:1003A000A4FE0D9439010C9410F10D941A010D94D2
:1003B00061270D947E270C9479C00C942C3E0D94EB
:1003C000F8300C94CFA70C9447410C9483B30C9451
:1003D0000CD60C94DAA40C9453420C94A1A80C945F
:1003E0003DA80C94F7660C9424670D9479270C941F
:1003F00006670C9456A80C9444E00C94A7640C94E3
:1004000008F10C941BA80C9464640D94D5300C94E2
:10041000B7650C94386C0D944E160C94FA3E0C94FF
:1004200018FE0C943FD00D94DA140C9488DC0C94D4
:10043000CFB80C946C650D9404010C9466650C9413
:100440006AA30C948A630C94D7770C942C650D9452
:1004500065010C94D8A40D94E8100C94F9A70C94A1
:100460006D410C9451D00C9423F00D9444110C94D4
:1004700019A00C94FA670D94A9030C94D5630C94FD
:100480002CA80C946A3F0C94F0630C9471630D9447
:100490003C110C94306C0D94CF300C94E9ED0C941D
:1004A00089FE0D946A270C94A9FE0C9443410C9488
:1004B00001830C94C1ED0D94FF000D940A310C944E
:1004C0005B640C9494640C94BC630C94899D0C94B0
:1004D0002F640D9467270C9473640D94A4100D94ED
:1004E00042010C9478650C948CDC0C946FA80C94ED
:1004F0007E650C9455B30C94BEA80C94496C0C9476
:1005000016D20C94DCA40D940F310C9420F10D94B0
:10051000EA300C94F73E0C94C7CE0C94B3D50C94EF
:10052000E8664E414E494E495459494E46CDCCCCD1
:100530003D0AD7233C17B7D13877CC2B329595E6B7
:10054000241FB14F0A000020410000C84200401C97
:100550004620BCBE4CCA1B0E5AAEC59D7400407AE4
:1005600010F35A00A0724E18090010A5D4E800003C
:10057000E87648170000E40B54020000CA9A3B00DA
:100580000000E1F505000080969800000040420F51
:10059000000000A08601000000102700000000E815
:1005A00003000000006400000000000A00000000DA
:1005B000000100000000002C76D888DC674F08237B
:1005C000DFC1DFAE59E1B1B796E5E3E453C63AE6E1
:1005D00051997696E8E6C28426EB898C9B62ED40C1
:1005E0007C6FFCEFBC9C9F40F2BAA56FA5F4900510
:1005F0005A2AF75C936B6CF9676DC11BFCE0E40D44
:1006000047FEF520E6B500D0ED902E030094357737
:10061000050080841E080000204E0A000000C80C5F
:10062000333333330F986E12831141EF8D211489C8
:100630003BE65516CFFEE6DB18D1844B381BF77C22
:100640001D901DA4BBE424203284725E228100C967
:10065000F124ECA1E53D27434F4D4D554E49434113
:1006600054494F4E0044525952554E004552524F34
:10067000525300494E464F004543484F00536C6566
:1006800065702E2E2E004D65736820706F696E7434
:10069000206F7574206F662072616E67650A004373
:1006A0006C69636B20746F20526573756D652E2EB7
:1006B0002E004E6F204D6F76652E00456E642066CD
:1006C000696C65206C6973740A00426567696E2005
:1006D00066696C65206C6973740A004E6F206D65E5
:1006E0006469610A00286E6F2066696C65290043A1
:1006F000757272656E742066696C653A20005344A9
:10070000207072696E74696E67206279746520006A
:100710004E6F74205344207072696E74696E670A5C
:100720000044656C6574696F6E206661696C656410
:100730002C2046696C653A200046696C652064652A
:100740006C657465643A0025697920256964202503
:1007500069682025696D20256973005072696E747F
:100760002074696D653A200045202553006F666648
:100770000044454255473A004D31313220536875A7
:1007800074646F776E005A38545F4D33204F46467D
:100790002E004348414D4245525F54454D5045520D
:1007A00041545552450042414259535445505049D5
:1007B0004E470041524353004D4F54494F4E5F4DF9
:1007C0004F44455300544845524D414C5F50524FA1
:1007D00054454354494F4E004C4F4E475F46494C99
:1007E000454E414D45004155544F5245504F52548E
:1007F0005F53445F53544154555300534443415253
:10080000440050524F4D50545F535550504F525426
:1008100000454D455247454E43595F50415253455F
:100820005200434153455F4C494748545F42524947
:100830004748544E45535300544F47474C455F4C2F
:10084000494748545300534F4654574152455F500F
:100850004F574552004255494C445F50455243451D
:100860004E54004C4556454C494E475F4441544117
:10087000005A5F50524F42450052554E4F5554005A
:100880004155544F4C4556454C005052494E545FCB
:100890004A4F420050524F4752455353004155541E
:1008A0004F5245504F52545F54454D5000564F4C97
:1008B000554D45545249430042494E4152595F46B5
:1008C000494C455F5452414E5346455200534552A0
:1008D00049414C5F584F4E5F584F4646004649527B
:1008E0004D574152455F4E414D453A4D61726C69DD
:1008F0006E204D61726C696E2D322E302E3820289C
:100900004A756C20313620323032312032303A355F
:10091000353A33362920534F555243455F434F44B0
:10092000455F55524C3A68747470733A2F2F67695B
:10093000746875622E636F6D2F4D61726C696E46BF
:1009400069726D776172652F4D61726C696E2050AE
:10095000524F544F434F4C5F56455253494F4E3AB6
:10096000312E30204D414348494E455F5459504542
:100970003A5A38545F4D33204558545255444552E5
:100980005F434F554E543A3120555549443A6365BB
:100990006465326132662D343161322D343734383A
:1009A0002D396231322D6335356336326633363751
:1009B00066660A002F2F20004D31343520533C69E4
:1009C0006E6465783E206F7574206F662072616E6C
:1009D00067652028302D31290A00416363656C6505
:1009E000726174696F6E3A20500046523A00204698
:1009F0006C6F773A200020643A0020693A0020703A
:100A00003A00496E76616C69642065787472756429
:100A100065720A0046696C616D656E742072756E50
:100A20006F75742064697374616E636520286D6DE1
:100A3000293A200046696C616D656E742072756E8E
:100A40006F757420004D34323120696E636F72729D
:100A500065637420706172616D6574657220757371
:100A60006167650A0020204261636B6C61736820D6
:100A700044697374616E636520286D6D293A202086
:100A800020202020202000202846312E30203D200C
:100A900066756C6C2C2046302E30203D206E6F6EBB
:100AA00065290A002020436F7272656374696F6E56
:100AB00020416D6F756E742F466164652D6F75747E
:100AC0003A202020202046006163746976653A0A46
:100AD000004261636B6C61736820436F727265637F
:100AE00074696F6E20004F66667365747320417081
:100AF000706C696564004572723A20546F6F2066AD
:100B000061722100546F6F206661722066726F6D92
:100B1000207265666572656E636520706F696E74BC
:100B20000A00454550524F4D204F4B0A00205A3283
:100B30003A004475616C20456E6473746F70204197
:100B4000646A7573746D656E7420286D6D293A2022
:100B500000506F7765722D6C6F7373207265636FD1
:100B6000766572792000446F6E65207072696E74CC
:100B7000696E672066696C650A004D3737004D3332
:100B80003100780673066C06650657064361703AB5
:100B9000004261627973746570205A0050726F620E
:100BA00065204F6666736574205A003F5A206F7542
:100BB00074206F662072616E67652028003F59209F
:100BC0006F7574206F662072616E676520282D0036
:100BD0003F58206F7574206F662072616E676520C4
:100BE000282D0050726F6265204F66667365742011
:100BF0005800656E7175657565696E672022006FB6
:100C00006B00526573656E643A2000426564204350
:100C10006F6F6C696E672E2E2E00426564204865EA
:100C20006174696E672E2E2E0023646566696E6599
:100C30002044454641554C545F004B6420004B69AD
:100C400020004B702000504944204175746F74752A
:100C50006E652066696E69736865642120507574DD
:100C600020746865206C617374204B702C204B6974
:100C700020616E64204B6420636F6E7374616E74C8
:100C8000732066726F6D2062656C6F7720696E7479
:100C90006F20436F6E66696775726174696F6E2E3F
:100CA000680A00504944204175746F74756E652060
:100CB0006661696C6564212074696D656F75740A7D
:100CC000000A20436C617373696320504944200A11
:100CD00000204B643A2000204B693A2000204B70E2
:100CE0003A20002054753A2000204B753A2000200D
:100CF0006D61783A2000206D696E3A200020643AD8
:100D0000200020626961733A2000504944204175F7
:100D1000746F74756E652073746172740A00504943
:100D200044204175746F74756E65206661696C65E9
:100D300064212054656D70657261747572652074EC
:100D40006F6F20686967680A0050494420417574D4
:100D50006F74756E6500504944204175746F7475E9
:100D60006E65206661696C6564212042616420655E
:100D700078747275646572206E756D6265720A00B2
:100D80004572723A207574663820666F6E74206EF4
:100D90006F7420696E697469616C697A65642E008C
:100DA0002568753A253032687500256875642025F8
:100DB000303268753A253032687500000C0F00FE3D
:100DC00007022503BB017FFE08FE08FE0508080692
:100DD000000040F0C88888987810050808060000D0
:100DE000C0F88888888888F8050505060001203045
:100DF000F830200508080600002070F82020202088
:100E0000E00509090600FF2070A8A8B888887020AE
:100E1000070505070001D86C366CD80509090600DE
:100E2000FFF8A88888888888A8F8050A0A0600FEBE
:100E3000205050505088A8A8887003030306000370
:100E400040A040FFFFFFFFFFFFFFFFFFFFFFFFFF8F
:100E5000FFFFFFFFFFFFFFFFFF0000000605FF0190
:100E6000070706020080808080800080030303065D
:100E70000105A0A0A005060606000050F85050F895
:100E8000500509090600FF2070A8A07028A870204E
:100E9000050707060000C8C81020409898050707F6
:100EA00006000040A0A040A89068010303060205C8
:100EB0008080800309090601FF2040408080804037
:100EC00040200309090601FF8040402020204040C7
:100ED0008005070706000020A8702070A8200505DF
:100EE000050600012020F820200203030601FFC0B0
:100EF0004080050101060003F8020202060100C05D
:100F0000C0050707060000081010204040800507B4
:100F100007060000708898A8C888700307070601B4
:100F20000040C040404040E00507070600007088D0
:100F300008102040F8050707060000F808103008E0
:100F4000887005070706000010305090F810100553
:100F50000707060000F880F00808887005070706F4
:100F60000000304080F0888870050707060000F810
:100F700008101020202005070706000070888870E0
:100F80008888700507070600007088887808106058
:100F9000020505060100C0C000C0C0020606060129
:100FA000FFC0C000C040800305050601012040804D
:100FB0004020050303060002F800F80305050601BA
:100FC000018040204080050707060000708810203F
:100FD0002000200507070600007088B8A8B88070B8
:100FE000050707060000708888F8888888050707C5
:100FF000060000F04848704848F005070706000062
:1010000070888080808870050707060000F04848D7
:10101000484848F0050707060000F88080F0808007
:10102000F8050707060000F88080F080808005073B
:101030000706000070888080988870050707060002
:1010400000888888F8888888030707060100E04040
:1010500040404040E005070706000038101010101F
:1010600090600507070600008890A0C0A090880542
:101070000707060000808080808080F8050707064B
:10108000000088D8A8888888880507070600008897
:1010900088C8A8988888050707060000708888888F
:1010A000888870050707060000F08888F080808037
:1010B00005070706000070888888A890680507075C
:1010C000060000F08888F0A0908805070706000059
:1010D00070888070088870050707060000F82020D7
:1010E0002020202005070706000088888888888837
:1010F000700507070600008888888850502005077B
:101100000706000088888888A8A8500507070600F9
:1011100000888850205088880507070600008888C6
:101120005020202020050707060000F80810204066
:1011300080F80309090601FFE080808080808080BC
:10114000E005070706000080404020101008030952
:10115000090601FFE020202020202020E0050303D5
:101160000600052050880501010600FEF803030370
:1011700006010580402005050506000070087888F6
:10118000780507070600008080F0888888F005054C
:1011900005060000708080887005070706000008BB
:1011A0000878888888780505050600007088F08032
:1011B00070050707060000304840E0404040050742
:1011C000070600FE70888888780870050707060003
:1011D000008080F0888888880307070601004000A7
:1011E000C0404040E00409090601FE100030101024
:1011F0001010906005070706000080808890E0903E
:1012000088030707060100C04040404040E0050554
:1012100005060000D0A8A8A8A8050505060000B08E
:10122000C8888888050505060000708888887005CC
:1012300007070600FEF0888888F08080050707060B
:1012400000FE78888888780808050505060000B043
:10125000C880808005050506000078807008F005CC
:1012600007070600002020F82020201805050506A5
:101270000000888888986805050506000088888829
:1012800050200505050600008888A8A8500505051A
:1012900006000088502050880507070600FE888851
:1012A0008850204080050505060000F8102040F811
:1012B0000309090601FF20404040804040402001D2
:1012C00009090602FF808080808080808080030979
:1012D000090601FF80404040204040408005030354
:1012E00006000248A890FF4572726F7220777269FB
:1012F00074696E6720746F20454550524F4D210A26
:10130000004D323930004D343130004D3131320032
:101310004D3130380053544F505045442E2000502A
:1013200072696E7465722073746F70706564206486
:10133000756520746F206572726F72732E20466916
:101340007820746865206572726F7220616E642007
:10135000757365204D39393920746F207265737447
:101360006172742E202854656D7065726174757297
:10137000652069732072657365742E20536574202F
:101380006974206166746572207265737461727429
:10139000696E67290A004E6F20436865636B737539
:1013A0006D2077697468206C696E65206E756D625A
:1013B00065722C204C617374204C696E653A200074
:1013C000636865636B73756D206D69736D617463BC
:1013D000682C204C617374204C696E653A20004C77
:1013E000696E65204E756D626572206973206E6F3F
:1013F00074204C617374204C696E65204E756D626B
:1014000065722B312C204C617374204C696E653AE7
:1014100020004D31313000534420726561642065F5
:1014200072726F720A002121204B494C4C2063617B
:1014300075736564206279204B494C4C2062757449
:10144000746F6E2F70696E0A002121204B494C4C3D
:101450002063617573656420627920746F6F206DFD
:1014600075636820696E6163746976652074696D5F
:1014700065202D2063757272656E7420636F6D6DCB
:10148000616E643A20004D656469612052656D6F3C
:10149000766564004D6564696120496E7365727498
:1014A0006564004D3130303053004D36303000002F
:1014B0000070C10000A0C00000000000009B4300BD
:1014C000009B430000C84353657474696E677320C2
:1014D00053746F726564002062797465733B206396
:1014E0007263200053657474696E67732053746F60
:1014F000726564202800454550524F4D2064617448
:101500006173697A65206572726F722E0A002073AA
:10151000746F7265642073657474696E677320728A
:101520006574726965766564202800202863616CA3
:1015300063756C6174656429210A0020213D2000D7
:10154000454550524F4D20435243206D69736D61A4
:10155000746368202D202873746F726564292000DD
:10156000496E6465783A200044494749504F5453C6
:10157000204C6F616465640A0044494749504F54E8
:1015800053204C6F6164696E670A00204D61726C74
:10159000696E3D563833290A00454550524F4D205B
:1015A00076657273696F6E206D69736D61746368BF
:1015B0002028454550524F4D3D001FE0201020107F
:1015C00020101020102020102010303008400480FF
:1015D00003001FE03FF03FF03FF01FE01FE03FF04F
:1015E0003FF03FF00FC0078003003FFFF03800706E
:1015F00030FC3020FC102078102030102C00D02E31
:1016000031D02F7BD02F7BD02E31D02C00D020306A
:101610001020781020FC1030FC303800703FFFF0B4
:101620003FFFF03800703186302387102787902FD6
:1016300087D02F03D0203010207810207810203051
:10164000102F03D02F87D027879023871031863023
:101650003800703FFFF01FFFF81FFFF80410400232
:10166000082002082004104008208010410010418A
:10167000000820800410400000001FFFF81FFFF842
:101680003300CC00CC120048004812004800481239
:101690000048004813FFCFFFC810000000081FFFDC
:1016A00083FFF8000FC7E000000FEFE0000003EF3A
:1016B00080000001EF000000006C0000000000004E
:1016C00000436F7272656374696F6E004E65787463
:1016D00020436F726E657200446F6E65004E6578D0
:1016E0007400486F6D696E672058595A00466164EE
:1016F0006520486569676874004C6576656C2042B2
:101700006564004732380A473239004361746368C0
:10171000205A204F6666736574004732380A473294
:1017200039204E004C6576656C20436F726E657291
:101730007300556E72657472616374205600556E45
:10174000726574722E206D6D00486F70206D6D0093
:1017500052657472616374205600526574726163DD
:1017600074206D6D004175746F2D526574726163E4
:1017700074005072696E742041626F727465640007
:101780004D323520500A4D32340050617573696E08
:10179000672E2E2E006F70656E00545249474745E4
:1017A0005245440066696C616D656E74007A5F70C5
:1017B000726F6265007A325F6D696E007A5F6D6983
:1017C0006E00795F6D696E00785F6D696E005265BD
:1017D000706F7274696E6720656E6473746F7020C9
:1017E0007374617475730A007C3C3E5E2B3D3F2F21
:1017F0005B5D3B2C2A225C0020436F756E74205881
:101800003A00453100626564002C20737973746579
:101810006D2073746F707065642120486561746514
:10182000725F49443A200048656174696E672046DA
:1018300061696C65640048656174696E6720666102
:10184000696C656400202D20496E76616C696420A6
:101850006578747275646572206E756D626572204C
:10186000210A004572723A204D415854454D5000AE
:101870004D415854454D50207472696767657265D3
:1018800064004572723A204D494E54454D50004D0A
:10189000494E54454D50207472696767657265649E
:1018A00000202F002042403A0020403A0000100063
:1018B000AA038000400100012C01B0012201400276
:1018C0001001F00202018003F8004004F500E0047A
:1018D000ED009005E4003006DD00E006D70080074B
:1018E000D1003008CC00D008C7007009C300100A2E
:1018F000BE00B00ABB00500BB700900CB300D00D77
:10190000AA00B00FA5005010A00010149600901669
:10191000900010198C00501A8500301C8200702233
:101920007800B023750040256E0020276900A029AB
:101930006400502A5F00902B5A00D02C5500702D67
:101940004F00E02E48005031450030334100D03583
:1019500039006036370010373300F0382D00A039D9
:101960002700803C1C00103D1900903D1700103EE0
:101970001400703E1200C03E0F00003F0C00403FBC
:101980000800803F0500C03F0000F03FFBFF2074CF
:101990006F6F206C6F6E6720657874727573696FF6
:1019A0006E2070726576656E7465640A0056652DEA
:1019B0004A65726B00565A2D4A65726B0056592D56
:1019C0004A65726B0056582D4A65726B0050726FF3
:1019D00062652059204F66667365740050726F62AD
:1019E000652058204F6666736574004520737465E2
:1019F00070732F6D6D005A2053746570732F6D6D69
:101A000000592053746570732F6D6D005820537406
:101A10006570732F6D6D00496E697400496E69744D
:101A200069616C697A6520454550524F4D004261AD
:101A3000636B6C6173680050726F6265204F6666FD
:101A40007365747300416363656C65726174696F7B
:101A50006E0056656C6F6369747900436F617469D9
:101A60006E6720746869636B6E657373005A2048F3
:101A70006F6D65204F666673657473005920486FFB
:101A80006D65204F666673657473005820486F6DEE
:101A900065204F666673657400506C6561736520E0
:101AA0005265736574005052494E54455220484166
:101AB0004C5445440025533A202553004B494C4C87
:101AC00045442E20005072696E7465722068616C06
:101AD0007465642E206B696C6C28292063616C6CC2
:101AE0006564210A006563686F3A004572726F721F
:101AF0003A0042696C696E656172204C6576656C6E
:101B0000696E6720477269643A0A00456E636C6FBC
:101B1000737572650052756E6F75742044697374C5
:101B2000206D6D004C6F6164206D6D00556E6C6FA3
:101B30006164206D6D0046696C2E204469612E0041
:101B40004520696E206D6DC2B300020000000000E8
:101B50000000000000000000000000000000000085
:101B60000000000000000000000000000000000075
:101B7000000000000000000000000007FFC3FF8716
:101B80000187FF0FFCFFFC1E01FF8007FFC3FF87DB
:101B9000018FFF1FFCFFFC1E03FFC00000C600C733
:101BA000018C0018000300618300C00001C600C75B
:101BB000C18C0018000300618300C000038600C6CA
:101BC000C18C0018000301806300C000070600C636
:101BD000618C0018000301806300C0000E0600C67F
:101BE000618C0018000301806300C0001C0600C661
:101BF000318FFE1FF803018063FFC000380600C666
:101C0000318FFE0FFC03018063FF8000700600C669
:101C1000198C00000C0301FFE30C0000E00600C675
:101C2000198C00000C0301FFE3070001C00600C689
:101C30000D8C00000C03018063018003800600C648
:101C40000D8C00000C03018063018007000600C6B4
:101C5000078C00000C03018063018006000600C6AB
:101C6000078C00000C03018063018007FFC3FF861F
:101C7000038FFF1FFC03018063018007FFC3FF8602
:101C80000387FF1FF803018063018000000000004C
:101C90000000000000000000000000000000000044
:101CA0000000000000000000000000000000000034
:101CB0000000000000000000000000000000000024
:101CC0000000000000000000000000F0004A0110C9
:101CD000013B0130012C014001270150012201701C
:101CE000011D0190011801B0011301C0010E01F0A6
:101CF000010901100204013002FF006002FA0090A5
:101D000002F500C002F0000003EB004003E6008093
:101D100003E100D003DC002004D700E004D200C0BF
:101D200005CD004006C800D006C3008007BE00F005
:101D300008B9004009B400C009AF00B00AAA00B059
:101D40000BA500D00CA000000E9B00C01096005008
:101D500012910000148C00C0158700B0178200B0EB
:101D6000197D00D01B7800001E730040206E00908B
:101D7000226900F024640040275F0090295A00E0A7
:101D80002B5500102E500020304B0010324600E042
:101D900033410090353C001037370070383200A0D6
:101DA000392D00B03A2800A03B2300603C1E0010F3
:101DB0003D1900903D1700103E1400703E1200C007
:101DC0003E0F00003F0C00403F0800803F0500C070
:101DD0003F0000F03FFBFF2020506C616E6E65728B
:101DE00042756666657242797465733A20002046D2
:101DF000726565204D656D6F72793A2000436F6D95
:101E000070696C65643A204A756C20313620323036
:101E100032310A00204C617374205570646174651E
:101E2000643A20323032312D30372D3136207C204B
:101E3000417574686F723A20285A4F4E4553544189
:101E4000522C2048616C6C79290A004D61726C69D2
:101E50006E2D322E302E380A004D61726C696E0084
:101E600020536F6674776172652052657365740ADA
:101E700000205761746368646F67205265736574EE
:101E80000A002042726F776E206F7574205265735E
:101E900065740A002045787465726E616C20526525
:101EA0007365740A00506F77657255700A0061752A
:101EB000746F25632E67004732385859004D313012
:101EC0003031006572726F722077726974696E6763
:101ED00020746F2066696C650A00446F6E6520731C
:101EE0006176696E672066696C652E0A004D32392D
:101EF00000456E6473746F70730025532025632052
:101F000025632025632025630020503A00656E6418
:101F100073746F7073206869743A20005761726E31
:101F2000696E673A20486F6D696E672042756D7003
:101F30002044697669736F72203C20310A00206C5E
:101F4000696D6974656420746F2000204D6178208C
:101F500000000048420000484200008040020204A5
:101F60000000804000008040000000400080A2434C
:101F700000809D430000C843FFFFFF4C6F61642059
:101F800053657474696E67730053746F7265205380
:101F9000657474696E677300416476616E6365642D
:101FA0002053657474696E6773004F6E00554E4C14
:101FB0004F41442046494C414D454E540046494C02
:101FC000414D454E54204348414E474500526573AC
:101FD000746F72652044656661756C74730050722D
:101FE0006568656174202420436F6E660052756ECB
:101FF0006F75742053656E736F72004D36303020EC
:10200000423020542569004D373031205425690075
:102010004D3730322054256900556E6C6F61642055
:10202000416C6C004D373032004C6F616420466962
:102030006C616D656E74202A004368616E6765206F
:1020400046696C616D656E74202A00556E6C6F6117
:10205000642046696C616D656E74202A00436F6E62
:1020600074696E7565005075726765206D6F726575
:1020700000524553554D45204F5054494F4E533A09
:10208000005052494E5420504155534544002020A1
:102090004E6F7A7A6C653A20004D38340041757481
:1020A0006F20486F6D650054656D70657261747561
:1020B00072650041425300504C410050726F62659E
:1020C000205A204F66667365740046616E20537017
:1020D000656564004E6F7A7A6C65004D61696E00CB
:1020E00044697361626C65205374657070657273C6
:1020F00000486F6D65205A004732385A00486F6DAE
:10210000652059004732385900486F6D65205800E6
:10211000473238580047323800507265686561743C
:10212000202420456E640050726568656174202427
:102130002042656400436F6F6C646F776E0050726D
:102140006568656174202400466C6F7700B720B322
:10215000204D3330332055312045256920532569E2
:1021600000504944204175746F74756E65202A00D3
:102170005049442D44202A005049442D49202A002A
:102180005049442D50202A005654726176204D69E2
:102190006E00566D696E00566D6178204500566D73
:1021A0006178205A00566D6178205900566D61782B
:1021B000205800416D6178204500416D6178205ABA
:1021C00000416D6178205900416D617820580041CF
:1021D0002D54726176656C00412D52657472616395
:1021E0007400416363656C0050726F62696E6720B2
:1021F00025692F25693D2025730050726F62696E35
:1022000067206D65736820706F696E74200050726E
:102210006F62696E6720506F696E74004F666673F7
:1022200065742063617463686564213D20257300D3
:1022300070726F62652E6F66667365742E7A203DCC
:1022400020004F7665722072616E67652C206D618B
:102250006E75616C206C6576656C21006D696E5FD2
:102260006F66667365747A203D20006D61785F6FDC
:1022700066667365747A203D20004661696C212092
:102280004D6F766520646F776E2050726F62652E99
:1022900000546F206361746368206F6666736574B1
:1022A00000202844525952554E29004732392041C6
:1022B00075746F20426564204C6576656C696E6745
:1022C000003F20284C2C522C462C4229206F75743C
:1022D000206F6620626F756E64732E0A003F285669
:1022E000296572626F7365206C6576656C20696D17
:1022F000706C61757369626C652028302D34292EED
:102300000A00426164205A2076616C75650A004EAD
:102310006F2062696C696E65617220677269640A18
:1023200000204D393220580020204D61783A20009D
:1023300020204D696E3A2000536F667420656E64EC
:1023400073746F70733A2000252900257C00477252
:10235000616469656E74204D69782000506F7765FF
:1023600072204F757461676500436F6E66696775AB
:10237000726174696F6E00313330004245443A2017
:102380003130306B207769746820342E376B2070C1
:10239000756C6C2D75700052756E61776179205780
:1023A000617463683A204F4E004D61782054656D2A
:1023B0007000323735004D696E2054656D700045F0
:1023C000313A203130306B207769746820342E37F1
:1023D0006B2070756C6C2D757000505355004765FF
:1023E0006E657269630050726F746F636F6C003159
:1023F0002E30004261756400313135323030006872
:10240000747470733A2F2F7777772E616C696578C3
:1024100070726573732E636F6D2F6974656D2F33E2
:10242000323936353430363339362E68746D6C00B7
:102430005A4F4E4553544152205A5249425F5636E4
:10244000007777772E7A6F6E657374617233642EBE
:10245000636F6D00323032312D30372D3136004D03
:1024600061726C696E2D322E302E38004455414C0D
:10247000205A20454E4453544F50004455414C205F
:102480005A2044524956455200544954414E204521
:102490007874727564657200504C2D30384E20533C
:1024A000454E534F520042696C696E656172204C13
:1024B0006576656C696E670056322E302E31005A93
:1024C00038545F4D3300546865726D6973746F7270
:1024D0007300426F61726420496E666F00507269CA
:1024E0006E74657220496E666F004D313030300079
:1024F00053746F70205072696E743F00526573752B
:102500006D65205072696E743F004261636B0053C9
:10251000746F70004E6F204D65646961004368619F
:102520006E6765204D65646961004D3231005377F7
:102530006974636820506F776572204F6666004D3E
:102540003831004368616E67652046696C616D656E
:102550006E740041626F7574205072696E7465729A
:102560000054756E65005061757365205072696E18
:10257000743F00496E666F2053637265656E00504C
:1025800061726B696E672E2E2E00000057616974B0
:1025900020666F720066696C616D656E7420636899
:1025A000616E676500746F207374617274005761A7
:1025B000697420666F720066696C616D656E742067
:1025C000756E6C6F616400004E6F7A7A6C6520687E
:1025D000656174696E6700506C6561736520776131
:1025E00069742E2E2E00005072657373206275740C
:1025F000746F6E00746F2068656174206E6F7A7AF4
:102600006C650000496E736572742066696C616D5B
:10261000656E7400616E64207072657373206275FC
:1026200074746F6E00746F20636F6E74696E75657D
:10263000005761697420666F720066696C616D6530
:102640006E74206C6F616400005072657373204279
:102650007574746F6E00746F20726573756D65208C
:102660007072696E7400005761697420666F722021
:102670007072696E7400746F20726573756D652E6B
:102680002E2E00005761697420666F720066696CB7
:10269000616D656E74207075726765000024F4D4F6
:1026A0003050C38E20C2A24017828B7011127A91D3
:1026B0000D816CD90AA861E108C7586607615143CA
:1026C000061E4B5D05C145A7041A411104093D983A
:1026D00003713931034036DB0265339102D4305443
:1026E00002802E1D02632CEE01752AC501B028A0C0
:1026F00001102781018F2564012B244B01E0223436
:1027000001AC211F018D200D01801FFC00841EEDF6
:1027100000971DDF00B81CD200E61BC600201BBCC2
:1027200000641AB200B219A8000A19A0006A189928
:1027300000D117910040178B00B516840031167E2A
:1027400000B31579003A157300C7146F0058146A66
:1027500000EE1366008813630025135E00C7125B4A
:10276000006C12570015125400C111510070114F26
:102770000021114B00D61049008D1047004610442F
:102780000002104200C00F4000800F3E00420F3C8C
:1027900000060F3B00CB0E3800930E37005C0E3561
:1027A00000270E3400F30D3200C10D3100900D30C2
:1027B00000600D2E00320D2D00050D2C00D90C2BC4
:1027C00000AE0C2900850C29005C0C2700350C2775
:1027D000000E0C2600E80B2400C40B2400A00B23E1
:1027E000007D0B23005A0B2100390B2100180B2010
:1027F00000F80A1F00D90A1E00BB0A1E009D0A1D10
:1028000000800A1D00630A1C00470A1B002C0A1BDB
:1028100000110A1A00F7091A00DD091900C4091984
:1028200000AB091900920917007B0918006309170A
:10283000004C09160036091600200916000A091571
:1028400000F5081500E0081400CC081400B80814BE
:1028500000A4081400900813007D0812006B0813F0
:10286000005808120046081200340811002308110D
:10287000001208110001081100F0071000E0071015
:1028800000D0071000C0071000B0070F00A107100C
:102890000091070E0083070F0074070F0065070EF5
:1028A0000057070E0049070E003B070D002E070ECC
:1028B0000020070D0013070D0006070D00F9060C98
:1028C00000ED060D00E0060C00D4060C00C8060C56
:1028D00000BC060C00B0060C00A4060B0099060C08
:1028E000008D060B0082060B0077060B006C060BB2
:1028F0000061060A0057060B004C060A0042060A51
:102900000038060A002E060A0024060A001A060AE3
:10291000001006090007060A00FD050900F4050974
:1029200000EB050900E2050900D9050900D00509F9
:1029300000C7050900BE050900B5050800AD05087A
:1029400000A50509009C050800940508008C0508F1
:1029500000840508007C050800740508006C050764
:1029600000650508005D050700560508004E0507CF
:102970000047050700400508003805070031050736
:10298000002A050700230507001C05060016050799
:10299000000F0507000805060002050700FB0406F6
:1029A00000F5040700EE040600E8040600E2040750
:1029B00000DB040600D5040600CF040600C90406A7
:1029C00000C3040600BD040600B7040600B10405F8
:1029D00000AC040600A6040600A00405009B040643
:1029E0000095040500900406008A0405008504058E
:1029F00000800406007A04050075040500700405D3
:102A0000006B04050066040500610405005C040514
:102A10000057040500520405004D04050048040554
:102A200000430405003E0404003A04050035040593
:102A300000300404002C04050027040400230405CE
:102A4000001E0404001A0404001604050011040406
:102A5000000D04040009040500040404000004043B
:102A600000FC030400F8030400F4030400F0030472
:102A700000EC030400E8030400E4030400E00304A2
:102A800000DC030400D8030400D4030400D00304D2
:102A900000CC030400C8030300C503030024F404AE
:102AA000D9201BC40C5C0E9804C4095F0265077131
:102AB00001F405F900FB04B30048048700C1036971
:102AC000005803550003034500BE023A008402315A
:102AD0000053022A002902250004022000E4011C00
:102AE00000C8011900AF01170098011400840113F8
:102AF00000710110006101100051010E0043010D31
:102B00000036010B002B010B0020010B0015010901
:102B1000000C01090003010800FB000800F3000895
:102B200000EB000700E4000600DE000600D8000607
:102B300000D2000600CC000500C7000500C2000559
:102B400000BD000400B9000400B5000400B1000499
:102B500000AD000400A9000400A5000300A20003CA
:102B6000009F0004009B00030098000300950002F2
:102B70000093000300900003008D0002008B00030F
:102B80000088000200860002008400030081000229
:102B9000007F0002007D0002007B0002007900023D
:102BA000007700010076000200740002007200014C
:102BB00000710002006F0002006D0001006C000255
:102BC000006A000100690002006700010066000160
:102BD0000065000100640002006200010061000164
:102BE00000600001005F0002005D0001005C000168
:102BF000005B0001005A000100590001005800016B
:102C0000005700010056000100550001005400016A
:102C10000053000000530001005200010051000168
:102C200000500001004F0001004E0000004E000166
:102C3000004D0001004C0001004B0000004B000162
:102C4000004A00010049000100480000004800015E
:102C5000004700010046000000460001004500005A
:102C60000045000100440001004300000043000152
:102C7000004200000042000100410000004100014C
:102C800000400001003F0000003F0001003E000046
:102C9000003E0001003D0000003D0001003C00003E
:102CA000003C0000003C0001003B0000003B000134
:102CB000003A0000003A000100390000003900012C
:102CC0000038000000380000003800010037000024
:102CD0000037000100360000003600000036000119
:102CE0000035000000350000003500010034000010
:102CF0000034000000340001003300000033000005
:102D000000330001003200000032000000320001F8
:102D100000310000003100000031000100300000EF
:102D20000030000000300001002F0000002F0000E4
:102D3000002F0000002F0001002E0000002E0000D8
:102D4000002E0001002D0000002D0000002D0000CD
:102D5000002D0001002C0000002C0000002C0000C1
:102D6000002C0001002B0000002B0000002B0000B5
:102D7000002B0001002A0000002A0000002A0000A9
:102D8000002A00010029000000290000002900009D
:102D90000029000000290001002800000028000090
:102DA0000028000000280000002800010027000083
:102DB0000027000000270000002700000027000176
:102DC000002600000026000000260000002600006B
:102DD000002600010025000000250000002500005D
:102DE000002500000025000000250001002400004F
:102DF0000024000000240000002400000024000142
:102E00000023000000230000002300000023000036
:102E10000023000000230000002300010022000026
:102E2000002200000022000000220000002200001A
:102E3000002200010021000000210000002100000C
:102E400000210000002100000021000000210001FD
:102E500000200000002000000020000000200000F2
:102E600000200000002000000020000000200001E1
:102E7000001F0000001F0000001F0000001F0000D6
:102E8000001F0000001F0000001F0001001E0000C6
:102E9000001E0000001E0000001E000000A42C0008
:102EA00000841E0000B0120000870A00009E05008A
:102EB00000E90200007B010000BF0000004D6978BE
:102EC00065720043616E63656C004D6F74696F6E6F
:102ED000004379636C65204D697800436F6D6D69BF
:102EE0007420562D746F6F6C204D697800436F6DA0
:102EF000706F6E656E74203D00562D746F6F6C732D
:102F000020576572652052657365740052616E6466
:102F10006F6D204D6978003A64697361626C650079
:102F20003A20656E61626C65004772616469656E26
:102F3000744D697800526573657420562D746F6FF7
:102F40006C730041637469766520562D746F6F6CE5
:102F500000203B2043757272656E74205A00203B3E
:102F600020456E6400203B20537461727400203B46
:102F70002065787472756465727300203B20486523
:102F8000696768740052616E646F6D204D697820C6
:102F9000004D32342053256C642054256C64004766
:102FA00039322E39204525730047312046256400EB
:102FB000473120582573205925732046333030304F
:102FC000004731205A2573204633303000473238CD
:102FD000205A3000473120452564204632303000E9
:102FE0004D34323020532569205A2573004D31303D
:102FF0003620502569205325690054256920530047
:103000004D31303920532569004D32303020442570
:10301000730047323852305859004739322E392020
:103020004530205A300A47315A2573004D31303926
:103030002053313830004D31393020532569004D4F
:10304000343230205330205A300020496E76616C83
:103050006964206578747275646572200020496E19
:1030600076616C69642045207374657070657220A8
:103070000020452073746570706572206E6F742037
:103080007370656369666965640A00457874727572
:1030900064657273005374617274205072696E7447
:1030A0000043616E6E6F7420656E74657220737577
:1030B000626469723A2000022E2E002534642E25A7
:1030C00064206D6D0052657665727365204772618C
:1030D0006469656E74002020456E6420562D746FFF
:1030E0006F6C00537461727420562D746F6F6C0096
:1030F0002020456E64205A3A005374617274205A3D
:103100003A002053697A653A200043616E6E6F740D
:10311000206F70656E20737562646972200053447D
:1031200020496E6974204661696C005344206361D4
:103130007264206F6B0A006F70656E526F6F74203F
:103140006661696C65640A00766F6C756D652E69E1
:103150006E6974206661696C65640A004E6F205365
:103160004420636172640A004D32332025730046A7
:10317000696C652073656C65637465640A004669F3
:103180006C65206F70656E65643A2000454E442082
:10319000535542524F5554494E450A002220706FF4
:1031A00073002220706172656E743A22005355429A
:1031B000524F5554494E452043414C4C2074617246
:1031C0006765743A220053756263616C6C204F76B8
:1031D0006572666C6F770045786365656465642029
:1031E0006D617820535542524F5554494E452064E5
:1031F000657074683A310A006F70656E20666169A7
:103200006C65642C2046696C653A200057726974BD
:10321000696E6720746F2066696C653A200066727B
:1032200065736800646F696E67004E6F77200050A9
:103230007265737320627574746F6E20746F207280
:103240006573756D650A00507265737320627574DD
:10325000746F6E20746F2068656174206E6F7A7A67
:103260006C650A004F46460A004661646520486561
:10327000696768742000426564204C6576656C69F6
:103280006E6720004661696C656420746F20656E0E
:1032900061626C6520426564204C6576656C696E80
:1032A000670A00496E76616C6964206D6573682EEB
:1032B0000A00205A3A200020593A20004265642032
:1032C000583A20005072696E7420506175736564BD
:1032D0000050726F62696E67204661696C65640AAE
:1032E0000050726F62696E67204661696C656400A8
:1032F000486F6D65202573257325732046697273A9
:103300007400496E736572742066696C616D656ED8
:103310007420616E642070726573732062757474BA
:103320006F6E0A0020573A005A38545F4D332052CE
:10333000656164792E005072696E74696E672E2E15
:103340002E00220A00556E6B6E6F776E20636F6DD4
:103350006D616E643A2022005072696E742066724C
:103360006F6D204D65646961004D6F766520257332
:103370006D6D004D6F766520302E316D6D004D6F97
:10338000766520316D6D004D6F76652031306D6D45
:10339000004D6F76652041786973004D6F7665202A
:1033A0005A004D6F76652059004D6F7665205800A4
:1033B00000000A0B02090C0D0E08070304010000AF
:1033C00000000000000000000000000000000000FD
:1033D00000000000000000000000000012111000BA
:1033E00000000000000000000000000000000000DD
:1033F00000000000000000002200250028002B0033
:103400002E003100340002010000050108010B010B
:1034100000002100240027002A002D003000330086
:1034200001010000040107010A0105050505070562
:1034300008080808020202020A0A08080404040430
:10344000010101010101010103030303030303035C
:10345000040707070C0C0C0C0C0C0C0C02020202EB
:1034600006060606060606060B0B0B0B0B0B0B0BD4
:103470000102102020080810204010204080020186
:10348000020108040201010204081020408080406B
:10349000201008040201800402018040201008046A
:1034A0000201080402010102040810204080010208
:1034B00004081020408020453A0020593A0020524C
:1034C00000454550524F4D20496E697469616C69E1
:1034D0007A65640A0048617264636F6465642044BD
:1034E000656661756C742053657474696E677320CA
:1034F0004C6F616465640A003B200020204D36302B
:1035000033200020204D34313220530046696C6155
:103510006D656E742072756E6F75742073656E7351
:103520006F723A0020204D343235204600426163EC
:103530006B6C61736820636F6D70656E7361746925
:103540006F6E3A0020550046696C616D656E74209F
:103550006C6F61642F756E6C6F6164206C656E6753
:103560007468733A0020204D3835312058005A2DA8
:1035700050726F6265204F66667365740020204D3F
:103580003230392053004175746F2D526574726169
:1035900063743A20533D3020746F20646973616214
:1035A0006C652C203120746F20696E7465727072A6
:1035B000657420452D6F6E6C79206D6F7665732074
:1035C000617320726574726163742F7265636F76C4
:1035D00065720020204D3230382053005265636FF1
:1035E0007665723A20533C6C656E6774683E20467F
:1035F0003C756E6974732F6D3E0020570020204D7E
:10360000323037205300526574726163743A20532C
:103610003C6C656E6774683E20463C756E697473D9
:103620002F6D3E205A3C6C6966743E0020204D345C
:103630003133205300506F7765722D4C6F737320B8
:103640005265636F766572793A0020204D333031D0
:103650002050005049442073657474696E67733A52
:103660000020480020204D3134352053004D617436
:10367000657269616C206865617475702070617233
:10368000616D65746572733A0020204D36363600E0
:10369000456E6473746F702061646A7573746D65D0
:1036A0006E743A00204A00202047323920572049C2
:1036B0000020204D3432302053004175746F204279
:1036C0006564204C6576656C696E673A0020204D14
:1036D000323036205800486F6D65206F666673651E
:1036E000743A0020204D323035204200416476612A
:1036F0006E6365643A20423C6D696E5F7365676D09
:10370000656E745F74696D655F75733E20533C6DC3
:10371000696E5F66656564726174653E20543C6DD8
:10372000696E5F74726176656C5F6665656472610F
:1037300074653E20583C6D61785F785F6A65726B96
:103740003E20593C6D61785F795F6A65726B3E20FF
:103750005A3C6D61785F7A5F6A65726B3E20453CCA
:103760006D61785F655F6A65726B3E002054002072
:10377000204D323034205000416363656C657261C6
:1037800074696F6E2028756E6974732F7332293ACD
:1037900020503C7072696E745F616363656C3E209B
:1037A000523C726574726163745F616363656C3E01
:1037B00020543C74726176656C5F616363656C3E36
:1037C0000020204D3230312058004D6178696D75F0
:1037D0006D20416363656C65726174696F6E20284A
:1037E000756E6974732F7332293A0020204D323080
:1037F000332058004D6178696D756D20666565648C
:1038000072617465732028756E6974732F73293A19
:103810000053746570732070657220756E69743A18
:103820000020440020204D323030205300204469D5
:103830007361626C65640A0046696C616D656E74E3
:103840002073657474696E67733A0020204D3134BB
:10385000392043203B20556E69747320696E2043E4
:10386000656C736975730A0020286D6D290020202E
:10387000473231202020203B20556E697473206927
:103880006E206D6D000000FA430000FA4300000056
:10389000410000C8420000A0420000A0420000C851
:1038A000430080D443B80B0000B80B000064000054
:1038B0000010270000544845524D414C2052554EAF
:1038C0004157415900546865726D616C2052756EA4
:1038D000617761790000EB00E70011241FBECFEF94
:1038E000D1E2DEBFCDBF00E00CBF13E0A0E0B2E04C
:1038F000E8EAF6EB02E00BBF02C007900D92A43697
:10390000B107D9F727E1A4E6B3E001C01D92A639BB
:10391000B207E1F71CE1CCE6DCE100E006C021974C
:103920000109802FFE010F94AA58CB36D10780E001
:103930000807A9F70F9405420D94425B0C94000010
:103940002F923F924F925F926F927F928F929F92AF
:10395000AF92BF92CF92DF92EF92FF920F931F939D
:10396000CF93DF93CDB7DEB7A7970FB6F894DEBF3E
:103970000FBECDBF8FA380918F038D3409F4E7C3B1
:10398000843511F40C94862E873411F00C94B12EEA
:1039900080918D0390918E038B31910509F47DC147
:1039A000CCF48430910509F434C11CF4029788F1F9
:1039B000CAC38B30910509F46BC18531910511F4AF
:1039C0000C94B32E0A9709F0BEC381E00E942AAB83
:1039D0000C94B32E8A32910509F4D5C254F48D317A
:1039E000910509F484C10CF472C14E9709F49DC18C
:1039F000AAC38B35910509F413C28C35910509F4DE
:103A000014C28A35910509F09EC310929B0F0C9445
:103A1000B32E8091160E813011F00C94B32E1982C2
:103A20001A821B821C829E012F5F3F4F49016AE16F
:103A3000C62E6EE0D62E79E8E72E72E0F72EEEE184
:103A4000AE2EE3E0BE2E10E088E5810F0F94D22168
:103A5000D4018D934D01882311F10F94771F2B0111
:103A60003C01812F0F949805882351F0F7012081A4
:103A7000318142815381C301B2010F94B35809C00F
:103A8000D5012D913D914D915C91C301B2010F94EF
:103A9000B258F60160837183828393830AC0F70171
:103AA00080819181A281B381F60180839183A28379
:103AB000B3831F5FF4E0CF0ED11C24E0E20EF11CB3
:103AC00034E0A30EB11C133009F0BECF85E40F948F
:103AD000D2218C83882301F10F94771F6B017C0125
:103AE00083E00F949805882371F02091950230911E
:103AF00096024091970250919802C701B6010F9427
:103B0000B3586B017C01C092260ED092270EE09232
:103B1000280EF092290E10C0809195029091960285
:103B2000A0919702B09198028093260E9093270E51
:103B3000A093280EB093290E8091B31382FF2BC05F
:103B40008C81882341F18981811103C08A81882376
:103B500011F18091B5168823F1F02DEC3CEC4CE48A
:103B60005DE36091D20F7091D30F8091D40F90914B
:103B7000D50F0F94B3589B01AC01609191027091E5
:103B8000920280919302909194020F94365A1816E3
:103B900014F40F94152640E050E0BA0186E40E9428
:103BA0009D3220E030E0A9010F94365A181684F4B3
:103BB0000F94771F20E030E040E752E40F9436592D
:103BC00060937C0270937D0280937E0290937F02CB
:103BD00080919416882311F40C94072F85E40F9498
:103BE000AE1F882311F40C94072F88E50F94AE1FA5
:103BF00081110C94072F89E50F94AE1F81110C944D
:103C0000072F8AE50F94AE1F81110C94072F0C9497
:103C1000B92E80E50F94D221882329F00E9458E71D
:103C20006B017C0103C0C12CD12C760183E50F947C
:103C3000D221882361F00F94771F20E030E04AE71B
:103C400054E40F9415520F94AF596B017C010E94FC
:103C50004BC28091FD04811105C060E08DE796E0C4
:103C60000E945A770F945E31C60ED71EE81EF91EC9
:103C70000F945E31DC01CB018C199D09AE09BF099F
:103C8000B7FD02C00C94B32E80E00E94C047F0CF75
:103C900080E00E942AAB0C94B32E0F94B52A8111B8
:103CA0000C94B32E8CE0EFEAF2E0DE011196019065
:103CB0000D928A95E1F760E070E080E50F94880D41
:103CC000BE016F5F7F4F0E94B5720C94B32E80913E
:103CD0006A0F8770873011F00C94232F60E08FE417
:103CE0000F94FA2181110C94B32E0C94232F0F946E
:103CF0005E316093561770935717809358179093BF
:103D000059170F94B52A81110C94B32E8091A00FEE
:103D1000882311F40C94952F60E08FE40F94FA211E
:103D200081110C94B32E0C94952F20915E0F30913D
:103D30005F0F4091600F5091610F60918902709107
:103D40008A0280918B0290918C020F94B358AB0140
:103D5000BC0188E50E949D3269837A838B839C83B2
:103D60002091620F3091630F4091640F5091650F65
:103D700060918D0270918E0280918F0290919002DD
:103D80000F94B358AB01BC0189E50E949D326D834D
:103D90007E838F839887BE016B5F7F4FCE01019634
:103DA0000F948C1D882311F40C94B32E80E00E9494
:103DB00033AE0E9412CC61E085E40F94FA2101E059
:103DC00021E0482FBE016B5F7F4FCE0101960F941B
:103DD0006D2B6B017C019B01AC010F94B45A8111D6
:103DE00019C049815A816B817C818CEB92E30E94DE
:103DF00090B24D815E816F81788587EB92E30E945E
:103E000090B2B701A60182EB92E30E9490B28AE0E1
:103E10000E9494460E94F9CB0E94FF6C0C94B32E32
:103E20008FE080939B0F0C94B32E80918C0388239A
:103E300049F1893009F0A3C048E0A42E43E0B42E34
:103E400059E8E52E52E0F52ED12C00E010E0D50126
:103E50008D915D010F94D221882369F00F94771F13
:103E6000F7016083718382839383133011F401E03F
:103E700002C0DD24D3941F5FF4E0EF0EF11C143078
:103E800031F772C098E0292E93E0392E21EBE22E13
:103E90002FE0F22E29E832E03EA32DA33EE1C32E0F
:103EA00033E0D32E00E010E0D1018D911D010F947D
:103EB000D221882309F448C00F94771F2B013C01BD
:103EC000133049F0F60120813181428153810F94F2
:103ED000B2582B013C01ADA1BEA12D913D914D9158
:103EE0005C91C301B2010F94B2584B015C012DEB00
:103EF00037E346E855EB0F94365A87FD0AC02DEBA1
:103F000037E346E855E3C501B4010F94AF511816E5
:103F1000DCF4133051F44092950250929602609274
:103F200097027092980201E00FC0A5019401F70179
:103F300060817181828193810F94B358D7016D9311
:103F40007D938D939C9313971F5FB4E0EB0EF11C50
:103F5000EDA1FEA13496FEA3EDA3F4E0CF0ED11C9B
:103F6000143009F0A1CF05C0DD2019F00E94FD6CCE
:103F700006C0002321F085E992E00E94E0C40E947F
:103F8000FF6C0C94B32E8091160E813011F00C94BE
:103F9000B32E89E40F94D221E82E882321F00F94C8
:103FA000731F082F01C000E08AE40F94D221F82E7D
:103FB000882321F00F94731F182F01C010E0EE200A
:103FC00011F0063020F4FF2041F0163030F086E882
:103FD00096E00E94E0B10C94B32E80E1E9E8F2E0B3
:103FE000AAE1BEE001900D928A95E1F7EE2019F169
:103FF000602F000F770B880B990B0F94B65120910F
:104000007C1630917D1640917E1650917F160F944C
:104010001552209191043091920440919304509153
:1040200094040F94B35860931A0E70931B0E8093F0
:104030001C0E90931D0EFF2019F1612F110F770BAD
:10404000880B990B0F94B6512091801630918116F0
:1040500040918216509183160F9415522091950429
:104060003091960440919704509198040F94B3585E
:1040700060931E0E70931F0E8093200E9093210E5E
:1040800060E080E50F94FA218823C1F1EE20D1F0A1
:1040900020915E0F30915F0F4091600F5091610F42
:1040A00060911A0E70911B0E80911C0E90911D0E46
:1040B0000F94B25860931A0E70931B0E80931C0ECF
:1040C00090931D0EFF20D1F02091620F3091630F6D
:1040D0004091640F5091650F60911E0E70911F0EFC
:1040E0008091200E9091210E0F94B25860931E0E75
:1040F00070931F0E8093200E9093210E40E050E0AD
:10410000BA0186E40E949D326B017C0120E030E020
:10411000A9010F94365A18164CF420E030E040E71D
:1041200052E4C701B6010F94365903C060E070E055
:10413000CB0169837A838B839C83CE0101960E9495
:1041400031CC0C94B32E0F943C270C94B32E809159
:104150008D0390918E03833A910511F40C94FD2800
:104160000CF08AC18335910509F4A8C60CF082C011
:104170008A31910509F4BFC3BCF58431910509F476
:104180000DC37CF48131910509F4F4C22CF402973B
:1041900008F4B8C20C94832E429709F496C60C9486
:1041A000832E8731910509F42EC394F4853191054E
:1041B00009F425C3469711F00C94832E0F94BF1970
:1041C0008091B313877F80628093B3130C94B32ED6
:1041D0008831910509F42CC3499711F00C94832E72
:1041E0000F94B90C0C94B32E8032910509F42DC4B0
:1041F000F4F48D31910509F4DFC384F48B3191051A
:1042000009F487C34C9711F00C94832E80918A0394
:1042100090918B030F94401C0C94B32E8E3191051A
:1042200009F4D1C34F9709F439C40C94832E8D340B
:10423000910509F4E2C46CF48B34910509F4D9C4F6
:104240008C34910511F00C94832E0E94B16E0C9465
:10425000B32E8135910509F41BC68235910511F005
:104260000C94832E80919B0F8F7D806180939B0F98
:104270000C94B32E8037910509F4BAC5E4F58A365B
:10428000910509F414C5CCF48C35910509F443C6A5
:1042900054F48435910509F418C68535910509F45F
:1042A00017C60C94832E8836910509F4AAC4893662
:1042B000910509F4E9C40C94832E8D36910509F417
:1042C000C1C47CF48B36910509F42FC58C36910559
:1042D00011F00C94832E10926B0F10927A020C94B2
:1042E000B32E8E36910509F42BC58F36910509F44E
:1042F0003AC50C94832E8837910509F4FBC60CF05F
:104300009FC08537910509F4ABC60CF08CC082378D
:10431000910509F49EC68337910511F00C94832E04
:104320008DED98E00E94E0B160E08DEC98E00E9495
:104330004F3D60E088EB98E00E944F3D61E087E2EE
:104340009AE10E944F3D61E08DEA98E00E944F3D66
:1043500061E08DE998E00E944F3D60E084E998E0DB
:104360000E944F3D61E08AE898E00E944F3D61E085
:1043700080E898E00E944F3D61E089E798E00E9464
:104380004F3D61E081E798E00E944F3D61E083E6A8
:1043900098E00E944F3D60E085E598E00E944F3D27
:1043A00060E086E498E00E944F3D60E088E398E09A
:1043B0000E944F3D60E082E298E00E944F3D60E045
:1043C00081E198E00E944F3D60E082E098E00E9429
:1043D0004F3D61E08BEF97E00E944F3D60E086EE3D
:1043E00097E00E944F3D60E088ED97E00E944F3DCE
:1043F00061E085EC97E00E944F3D60E088EB97E03C
:104400000E944F3D60E083EB97E00E944F3D61E0EA
:1044100086EA97E00E944F3D60E082E997E00E94C3
:104420004F3D0C94B32E8637910509F429C6873782
:10443000910511F00C94832E0E94DC6D0C94B32E28
:104440008C38910509F4DFC46CF48937910509F4BF
:1044500059C68D37910511F00C94832E0F94B90C29
:104460000C94B32E8139910509F453C68B3991050B
:1044700009F4E8C40C94832E823921E0920711F4E8
:104480000C94F12B0CF08BC08F3C910511F40C9423
:10449000382ADCF5883C910509F4F8C6C4F4863A5C
:1044A000910509F4EDC634F4843A910509F4D9C6AE
:1044B0000C94832E873A910509F4E5C68E3B91054D
:1044C00011F00C94832E0E94D5360C94B32E8C3CA4
:1044D000910509F483C754F4893C910509F41BC77D
:1044E0008B3C910509F458C70C94832E8D3C9105A3
:1044F00009F4A5C78E3C910511F00C94832E4DEB69
:10450000E42E4FE0F42E18E59DC78232A1E09A0711
:1045100011F40C94532BECF4833D910511F40C949D
:10452000D32A5CF4803D910509F4E6C7813D9105ED
:1045300011F40C94C62A0C94832E8C3D910511F431
:104540000C94D62A8D3D910511F40C94FD2A0C94FF
:10455000832E8F32E1E09E0711F40C94EB2B6CF468
:104560008C3221E0920711F40C94562B8D3291403D
:1045700011F40C946B2B0C94832E8039A1E09A07D4
:1045800011F40C94EE2B8139914011F00C94832E90
:1045900081E00E949F580E94FF6C0C94B32E883FCC
:1045A000E1E09E0711F40C94822D0CF052C0893A80
:1045B00021E0920711F40C94772C04F58D39A1E0D9
:1045C0009A0711F40C94462E64F48A39E1E09E07B0
:1045D00009F416C48C39914011F40C94F62B0C9408
:1045E000832E843A21E0920711F40C94002C853A32
:1045F000914011F40C94032C0C94832E853FA1E080
:104600009A0711F40C947C2D7CF48C3AE1E09E071F
:1046100011F40C941D2D843F914011F00C94832EC5
:104620000E94134D0C94B32E863F21E0920711F4A3
:104630000C947F2D873F914011F00C94832E61E004
:1046400083E50F94FA2191E089270F9438390C946F
:10465000B32E8E3BA2E09A0711F40C94322E2CF567
:104660008B35E2E09E0711F40C94A02D7CF48C3085
:1046700022E0920711F40C94932D8835924011F0AA
:104680000C94832E0F944B0B0C94B32E8A39A2E01A
:104690009A0711F40C94192E8D3B924011F00C9452
:1046A000832E0F94AE090C94B32E873EE3E09E0751
:1046B00011F40C94382ECCF4833523E0920711F4D6
:1046C0000C94352E803A934011F00C94832E209157
:1046D0008A0330918B039091B31392609093B3133C
:1046E000C9010F94401C0C94B32E883EA3E09A0796
:1046F00011F40C94602E893E934011F40C94632EB7
:104700000C94832E80E50F94D221882329F00E94F7
:1047100058E76B017C0103C0C12CD12C760183E5E5
:104720000F94D221882361F00F94771F20E030E0AE
:104730004AE754E40F9415520F94AF596B017C0172
:104740000E944BC280918A0390918B03009721F0C5
:1047500061E00E94027805C060E08FE996E00E9467
:104760005A7740E0C701B6010E948D4C0F948D2707
:104770000C94B32E8091900384FF02C00C94982F68
:104780008091920387FF02C00C94982F809193032D
:10479000837011F00C94982F0C94B62F8091B31362
:1047A00083FF25C08AEC96E00E94E0B18091B313AC
:1047B00083FF17C082ED93E10E94E17F8BE1E2ED80
:1047C000F3E1DE01119601900D928A95E1F760E028
:1047D00070E0CE0101960F94E31ACE0101960F947A
:1047E00025228BEB96E00E94E0B10C94B32E0E9440
:1047F000C5B28BED96E00E94E0B10C94B32E0F94FD
:104800007E1A0C94B32EE0918A03F0918B03808181
:10481000882329F0803209F410823196F8CF60E0C5
:1048200080918A0390918B030F94881C0C94B32E73
:1048300083E50F94D221882321F00F943F1F0E941B
:10484000CD3884E50F94D2218823A9F00F943F1F1F
:104850006B017C010E945A6EC0922B05D0922C05F0
:10486000E0922D05F0922E05CD28CE28CF2819F004
:1048700081E08093940F8091BA05882321F181E033
:104880008CA380E090E0A0E2B1E488A399A3AAA35E
:10489000BBA31C8E1D8E1E8E1F8E19821A821B8238
:1048A0001C82E12CF12C8E010C5D1F4F20E0AE012B
:1048B000405E5F4FBE01645E7F4FCE0101960F9454
:1048C0007C220C94B32E0E94D945882381F00F944A
:1048D000D0190E94756E86E390E10F9475191092BD
:1048E00094031092950310929603109297030F94DD
:1048F0008D270C94B32E8091B31383FD02C00C94CA
:10490000B32E83E50F94D22181110C94C62F0C9401
:10491000B32E83E40F94AE1F882319F18FEE96E037
:104920000E94E0B180911915882391F0BE016F5F5C
:104930007F4F86E195E10E94A47F8E010F5F1F4F9C
:10494000F80181918F01882339F00E949446F8CFB5
:1049500085EE96E00E94E0B18AE00E9494460C94B5
:10496000B32E8091B31382FF21C08EEF96E00E9498
:10497000E0B16091AF137091B0138091B113909139
:10498000B2134AE00E949B468FE20E9494466091D7
:10499000AB137091AC138091AD139091AE134AE0BC
:1049A0000E949B460E9499470C94B32E80E197E0A9
:1049B0000E94E0B10C94B32E8091B3138E7F80934C
:1049C000B3130C94B32E8091B31383FD02C00C94E7
:1049D000B32E0F9425278091B31383FD02C00C944E
:1049E000B32E40918A0350918B03BE016F5F7F4FBE
:1049F00080E00F94A4348C01009711F40C94B32E32
:104A0000BC0189819A810E94C682B801882399F0ED
:104A100089E397E00E94AEB28AE00E949446109229
:104A2000AF131092B0131092B1131092B2130F94EF
:104A3000B1180C94B32E81E297E00E94AEB28FEFD2
:104A400092E20E94E0B10C94B32E8091B31382FDE8
:104A50000E944BC28091B31383FD02C00C94B32E0D
:104A600060E080E50F94FA21182F682F80918A0367
:104A700090918B030F94881C83E50F94D221882397
:104A800021F00F943F1F0E94CD380F94D0191111BF
:104A90000C94B32E0E94756E0C94B32E0E94266E59
:104AA0007B018C0120E831E541E050E00F9405588E
:104AB000C9016DE671E00F9482584B015C01C80199
:104AC000B70120E13EE040E050E00F940558CA01F4
:104AD000B90128E130E040E050E00F940558762E0F
:104AE000672EC62ED72E8CE3282E312C412C512C2C
:104AF000C801B701A20191010F940558F62EE72EC7
:104B0000CA01B901A20191010F940558CB018E0190
:104B10000F5F1F4F8114910499F0EF92FF927F93E2
:104B20006F936F927F92BF92AF929F928F9287E422
:104B300097E09F938F931F930F930F94475113C048
:104B4000A114B104B1F0EF92FF927F936F936F9233
:104B50007F92BF92AF928BE497E09F938F931F93C6
:104B60000F930F9447510FB6F894DEBF0FBECDBF21
:104B700030C0CD2879F0EF92FF927F936F936F92C0
:104B80007F928FE497E09F938F931F930F930F94DF
:104B90004751E9CF892B69F0EF92FF927F936F9392
:104BA00083E597E09F938F931F930F930F94475143
:104BB000DACFEF92FF9287E597E09F938F931F9351
:104BC0000F930F9447510F900F900F900F900F90ED
:104BD0000F9060E0C8010E9402780E94C5B2B8013F
:104BE0008BE597E00E94AEB28AE00E9494460C9456
:104BF000B32E0E94756E0C94B32E0E94C66E0C9458
:104C0000B32E80916B0B83FF02C00C94B32E89E40A
:104C10000F94D221882311F40C94CB2F0F944F1FA3
:104C200090E01816190614F481E090E026E0289F21
:104C3000F001299FF00D1124EA54F94E80819181F1
:104C40000C94D62F80916B0B83FF02C00C94B32E73
:104C500089E40F94D221882311F40C94DD2F0F9452
:104C60004F1F90E01816190614F481E090E026E03A
:104C7000289FF001299FF00D1124EA54F94E8081FC
:104C8000918110E00C94EE2F0F946F05182F87FF81
:104C900002C00C9448318FEF9BE00E94E0B1812F5D
:104CA0000E9499848AE00E9494460C94483160E006
:104CB00080E50F94EE2181110C94B32E81E40F94C2
:104CC000AE1F882329F060910106062F10E002C074
:104CD0000FEF10E089E40F94D221882399F00F940C
:104CE0004F1F90E01816190614F481E090E026E0BA
:104CF000289FF001299FF00D1124EA54F94E0481F8
:104D0000158108C083E50F94D221882319F00F94F0
:104D10003F1F8B01B8010F3F110519F010F06FEF25
:104D200070E0609301060C94B32E60E080E50F9470
:104D3000EE2181110C94B32E109201060C94B32E27
:104D40008EE40F94D221882311F40C94B32E0F9487
:104D50003F1F60931C0470931D0480931E04909366
:104D60001F040C94B32E83E50F94AE1F882331F0FB
:104D700060E083E50F94EE2180936B0B0E94C5B237
:104D800081E797E00E94E0B180916B0B882369F185
:104D900012E8E12E1BE0F12E00E010E020E080910F
:104DA0006B0B90E0A0E0B0E0002E04C0B695A79594
:104DB000979587950A94D2F780FF0EC0DD24D3948F
:104DC000D20E222319F08CE20E949446F7018591BD
:104DD00094910E94E0B12D2D0F5F1F4FF2E0EF0E76
:104DE000F11C05301105D9F6B7CD8DE697E0B2CDAF
:104DF00041E060E070E088E797E00E94C9B2B3C785
:104E00000E94B145B0C780916B0B83FDACC789E4AC
:104E10000F94D221882311F40C942F300F944F1F3C
:104E200090E01816190614F481E090E026E0289F1F
:104E3000F001299FF00D1124EA54F94E628173812B
:104E40000C94393083E50F94D221882309F48BC761
:104E50000F944F1F182F90E0CD970CF01CE3109388
:104E600069030F945E316B017C01212F30E0A8EEC5
:104E7000B3E00F945958C60ED71EE81EF91EC09213
:104E80006503D0926603E0926703F09268036BC7F4
:104E90000E945C850E94C66E0E945CC20E94FD4515
:104EA00068EE73E080E090E00E94BCB10E94004692
:104EB00060E086E897E00E945A7755C780919B0F83
:104EC0008F7E806280939B0F4EC70E94BCE64BC7CB
:104ED00083E50F94AE1F882309F445C70F945E3114
:104EE00060935617709357178093581790935917DC
:104EF0000F94771F20E030E04AE754E40F941552F6
:104F00000F94AF5960936A0370936B0380936C03A3
:104F100090936D0328C70F946F0587FD24C7909168
:104F2000900394FD04C09091920397FF0AC0A8E0FB
:104F3000CA2EA3E0DA2EBCE6EB2EBBE0FB2E10E07F
:104F400009C090919303937091F7682F81E00E94BC
:104F50001DE709C7D6018D916D010F94D2218823D9
:104F600009F46DC0133009F063C00F94771F4B0133
:104F70005C0120E030E040EA51E40F94AF5187FF3C
:104F80004EC0A501940160918C0B70918D0B8091A6
:104F90008E0B90918F0B0F9436592B013C019B0186
:104FA000AC016091E5057091E6058091E70590916F
:104FB000E8050F9415526093E5057093E60580931C
:104FC000E7059093E805A301920160919C0B709115
:104FD0009D0B80919E0B90919F0B0F9415526093A7
:104FE0009C0B70939D0B80939E0B90939F0B6091F5
:104FF000F5057091F6058091F7059091F8050F94ED
:10500000B451A30192010F9415520F94AF596093BC
:10501000F5057093F6058093F7059093F805809257
:105020008C0B90928D0BA0928E0BB0928F0B07C0C1
:105030000F94771FF701648B758B868B978B1F5F9F
:10504000F4E0EF0EF11C143009F084CF0E9427C267
:105050008AC60F9495338BE393E10E943C8C83C600
:1050600080918A0390918B03009709F440CCDC0176
:105070002C91222309F43BCC60E00E94027873C695
:1050800000918A0310918B0394E0F12C40E0915041
:1050900021F1F8018081282F2B7F213421F42181F7
:1050A0002133D9F407C08035C1F4818180538A301F
:1050B00048F013C0813421F0853421F441E002C06E
:1050C000FF24F39498012E5F3F4F89012F5F3F4FDC
:1050D000F80180818032C9F3DACF41110E94C5B254
:1050E000FF2021F084EB99E00E94E0B1C8010E940A
:1050F0009F4739C681E08093420C8093410C0E9407
:10510000176E31C61092420C1092410C0E94176E1D
:105110002AC660E070E083E50F94DF21823038F02A
:105120000E94C1B288EB99E00E94E0B11CC68C01DC
:10513000112788E40F94D2218823E1F00F94731F84
:105140008A3A910544F00F94731F8530914034F4EE
:105150000F94731F05C08AEA90E002C084E091E0DA
:1051600026E0209FF001219FF00D1124EA54F94E12
:105170009183808382E40F94D2218823D9F00F9405
:10518000731F97FD08C00F94731F8937910534F47E
:105190000F94731F05C080E090E002C088E790E0A4
:1051A00026E0209FF001219FF00D1124EA54F94ED2
:1051B0009383828386E40F94D221882309F4D3C594
:1051C0000F94731F97FD09C00F94731F8F3F9105B4
:1051D00009F034F40F94731F05C080E090E002C022
:1051E0008FEF90E026E0209FF001219FF00D112429
:1051F000EA54F94E95838483B6C560E070E083E598
:105200000F94DF217C01039724F540E050E0BA01C0
:1052100080E50E949D324B015C018701112720E04F
:1052200030E0A9010F94365A18161CF0812C912CED
:105230005401000F111F000F111FF801EB5BF34F1A
:1052400080829182A282B38232E0E316F104A9F057
:105250008AC583E0E816F10409F485C50E942DAAE9
:1052600082C56FEF7FEF83E50F94DF2180319105D9
:1052700010F0809148060E9400A90E9471A673C593
:105280000E9406E570C50F94F60D6DC50F946F056D
:10529000182F87FD68C50091B00F84E40F94D221C8
:1052A000882309F4F9C60F94771F6B017C0120E075
:1052B00030E0A9010F94AF51882339F194E019022D
:1052C000F0011124E455F04FC082D182E282F382D2
:1052D00020E030E0A9016091AC0F7091AD0F80919A
:1052E000AE0F9091AF0F0F94AF5181110CC080E0C1
:1052F00090E0A0EEBFE38093AC0F9093AD0FA0932E
:10530000AE0FB093AF0F01E0C7C680E08093B00F3F
:105310000E9479C028C50F946F0587FD24C578E0E9
:10532000C72E73E0D72EECE6EE2EEBE0FE2E10E05B
:10533000D6018D916D010F94AE1F882331F10F942A
:10534000771F6C8F7D8F8E8F9F8F80E1EBEBF2E06C
:10535000DE01119601900D928A95E1F79E012F5F73
:105360003F4F45E45AE1612FCE014C960E9417C190
:105370006C8D7D8D8E8D9F8D0F94AF59F70160835D
:105380007183828393830E94E0C11F5FF4E0EF0E7C
:10539000F11C143069F6E7C40F946F0587FDE3C470
:1053A00058E0E52E53E0F52E0CE61BE06CE7C62E28
:1053B0006BE0D62ED7018D917D010F94AE1F88230F
:1053C00039F00F94771FF80164A375A386A397A300
:1053D0000C5F1F4FC016D10669F7C5C480919103B9
:1053E00087FD5FC6809192038E7009F05AC6409186
:1053F000A00B5091A10B6091A20B7091A30B8AEDB1
:1054000099E00E9490B24091A40B5091A50B60913D
:10541000A60B7091A70B8EEB94E30E9490B2409183
:10542000A80B5091A90B6091AA0B7091AB0B8CE665
:1054300097E30E9490B28AE00E94944694C40E942E
:1054400068E791C4812F0F94AE1F882341F00F9419
:10545000771FD7016D937D938D939C9313971F5F57
:10546000B4E0EB0EF11C1B3569F70E94FF6C7BC4A6
:1054700083E50F94AE1F882351F00F94771F60933C
:10548000951670939616809397169093981686E4C7
:105490000F94AE1F882381F00F94771F20E030E037
:1054A00040E752E40F9436596093991670939A1618
:1054B00080939B1690939C168AE50F94AE1F8823C9
:1054C00051F00F94771F60939D1670939E168093F2
:1054D0009F169093A01687E50F94AE1F882309F4BA
:1054E00042C40F94771F6093A9167093AA168093F5
:1054F000AB169093AC1637C483E50F94AE1F882388
:1055000051F00F94771F6093A1167093A2168093A9
:10551000A3169093A41686E40F94AE1F882381F0FF
:105520000F94771F20E030E040E752E40F943659A3
:105530006093A5167093A6168093A7169093A8164D
:1055400082E50F94AE1F882381F00F94771F20E02F
:1055500030E040E752E40F9436596093B1167093EF
:10556000B2168093B3169093B41687E50F94AE1FCE
:10557000882309F4F8C30F94771F6093AD167093D6
:10558000AE168093AF169093B016EDC383E50F94DB
:10559000AE1F882309F4E7C30F94631F809394160A
:1055A0000E944BE4E0C30E94E6E5DDC383E50F946F
:1055B000D221882331F00F94731F9093620280935D
:1055C00061028091900390919103A0919203B09118
:1055D0009303892B8A2B8B2B09F0C5C36091610241
:1055E000709162028AEE99E00E94A1B285E20E9467
:1055F00094468AE00E949446B6C30F946F05F82E35
:1056000087FDB1C383E50F94D2210F2D0F2C000C21
:10561000110B882369F10F94731FF801EE0FFF1F20
:10562000ED59FD4F91838083000F111F000F111F53
:10563000F801E85BFD4F7F01BC01990F880B990BC6
:105640000F94B6512AE037ED43E25CE30F94155214
:10565000F801E65DF14F20813181428153810F9441
:105660001552D7016D937D938D939C9313977BC3B4
:105670000E94C5B285E40E94944680E38F0D0E948B
:105680009446000F111FF801ED59FD4F60817181A3
:105690008EEE99E00E94A1B285E20E9494468AE0D3
:1056A0000E94944660C30E94A93C5DC364E071E01F
:1056B00083E50F94880D8C0168EE73E080E50F940C
:1056C000880D8938B3E19B0710F088E893E1B801B1
:1056D0000E942D7748C360E085E40F94EE2181118C
:1056E00073C080E50F94AE1F882351F00F94771F8D
:1056F000609380177093811780938217909383171C
:1057000089E40F94AE1F882381F00F94771F2CEA51
:1057100035EC47E25EE30F94155260938417709363
:105720008517809386179093871784E40F94AE1F94
:10573000882381F00F94771F2CEA35EC47E25EE373
:105740000F943659609388177093891780938A173E
:1057500090938B170E94C5B240918017509181178A
:1057600060918217709183178EEF99E00E9490B23A
:105770002CEA35EC47E25EE360918417709185175F
:1057800080918617909187170F943659AB01BC0111
:105790008AEF99E00E9490B22CEA35EC47E25EE392
:1057A000609188177091891780918A1790918B1753
:1057B0000F941552AB01BC0186EF99E00E9490B2A4
:1057C0008AE00E949446CFC20E94C1B282E09AE071
:1057D0000E94E0B1C8C20E94B432C5C20E944BC24E
:1057E000C2C20E94D3E70E94FF6CBDC280919003A9
:1057F00083FD9DC480919203867009F098C4BCC457
:105800000F94FC1FB0C26FEF7FEF89E40F94DF218C
:10581000082F6FEF7FEF8AE40F94DF21182F8AE5BE
:105820000F94D221811108C081E50F94D221D82E86
:10583000882309F4BEC401C0D12CC02E81E0800FA2
:10584000873008F04DC0912E81E0810F873008F03D
:1058500047C00F94771F2B013C01F02E07FDF12C60
:1058600007FF02C005E0C02E812E17FD812C17FF17
:1058700002C015E0912EB6E03B2ECF1408F473C29F
:10588000E82C3F9C500111249E1440F10E2D10E095
:10589000DD2071F0F501E00FF11FEE0FFF1FEE0F9D
:1058A000FF1FEA53F94E208131814281538103C0A9
:1058B00020E030E0A9010A0D1B1D000F111F000F91
:1058C000111F0A53194EC301B2010F94B358F801C6
:1058D0006083718382839383E394D6CFF394CDCF97
:1058E0000E94C1B286E896E00E94E0B13CC26BEB38
:1058F000E62E65E0F62E670118E501E0812F0F9492
:10590000AE1F882391F00E944BC280916E0390914C
:105910006F03892B09F454C40F94771FD6016D933C
:105920007D938D939C93139700E01F5FB4E0CB0EA3
:10593000D11C1B3519F786E40F94AE1F882371F133
:105940000E944BC20F94771F6B017C0120E030E076
:1059500040E85FE30F94365A18166CF020E030E010
:10596000A901C701B6010F94AF5187FF0AC0C12C2E
:10597000D12C760106C0C12CD12C50E8E52E5FE376
:10598000F52E20E030E04FE753E4C701B6010F9455
:1059900015520F94AF596093C705E5C1002309F470
:1059A000E2C181ED9AE00E94E0B18091C7058111CA
:1059B00004C08FE891E20E94E0B188EC9AE00E9476
:1059C000E0B18091C705E4E68E9FC00111248158A3
:1059D0009F4F6FEF70E00F94965870E080E090E07A
:1059E0000F94B45120E030E048EC52E40F94365963
:1059F000AB01BC0184EA9AE00E9490B287E89AE089
:105A00000E94E0B185E69AE00E94E0B118E580E2EC
:105A10000E949446812F0E949446D7016D917D91FA
:105A20008D919D917D0142E00E9424478AE00E9471
:105A300094461F5F1B3559F796C10F94B52A811103
:105A400092C13FEAE32E34E1F32EE9E8F2E0FEA34F
:105A5000EDA38E010F5F1F4F48E7C42E4FE1D42EF8
:105A60001801F7016591759185919491ADA1BEA141
:105A70008D909D90AD90BD90BEA3ADA3A501940166
:105A80000F94B2582B013C01F10160837183828332
:105A9000938320E030E040EA51EC0F94365A87FDC2
:105AA0000AC020E030E040EA51E4C301B2010F94A3
:105AB000AF5118162CF4F601849118160CF484C317
:105AC000D1018D909D90AD90BD901D0120E030E002
:105AD00040EA51ECC501B4010F94365A87FD7FC3EB
